:020000040000FA
:100000000C9463000C948B000C948B000C948B006C
:100010000C948B000C948B000C948B000C948B0034
:100020000C948B000C948B000C948B000C948B0024
:100030000C948B000C948B000C948B000C948B0014
:100040000C946C050C948B000C943A050C941405DC
:100050000C948B000C948B000C948B000C948B00F4
:100060000C948B000C948B000000000024002700EF
:100070002A0000000000250028002B0000000000DE
:1000800023002600290004040404040404040202DA
:100090000202020203030303030301020408102007
:1000A0004080010204081020010204081020000012
:1000B0000008000201000003040700000000000027
:1000C0000000C805010A11241FBECFEFD8E0DEBF33
:1000D000CDBF26E0A0EDB3E001C01D92A235B2076E
:1000E000E1F713E0A0E0B1E0EEE8F9E102C005902D
:1000F0000D92A03DB107D9F710E0C2E6D0E004C0F0
:100100002197FE010E949F0AC136D107C9F70E94BC
:1001100058070C94BA0C0C9400000895AF92BF924B
:10012000CF92DF92EF92FF920F931F93CF93DF93C3
:100130006C017B018B01040F151FEB015E01AE18F2
:10014000BF08C017D10759F06991D601ED91FC9114
:100150000190F081E02DC6010995892B79F7C50141
:10016000DF91CF911F910F91FF90EF90DF90CF9093
:10017000BF90AF900895FC014481558160817181E9
:100180008BED93E00C948E00FC01538D448D252F54
:1001900030E0842F90E0821B930B541710F0CF9621
:1001A000089501970895FC01918D828D981761F053
:1001B000A28DAE0FBF2FB11D5D968C91928D9F5F6A
:1001C0009F73928F90E008958FEF9FEF0895FC0149
:1001D000918D828D981731F0828DE80FF11D858DFC
:1001E00090E008958FEF9FEF0895FC01918D228D8F
:1001F000892F90E0805C9F4F821B91098F73992714
:1002000008958BED93E00E94F50021E0892B09F41D
:1002100020E0822F089580E090E0892B29F00E9451
:10022000010181110C9400000895FC01A48DA80F18
:10023000B92FB11DA35ABF4F2C91848D90E0019628
:100240008F739927848FA689B7892C93A089B18948
:100250008C91837080648C93938D848D981306C0E9
:100260000288F389E02D80818F7D80830895EF924D
:10027000FF920F931F93CF93DF93EC0181E0888F60
:100280009B8D8C8D98131AC0E889F989808185FF30
:1002900015C09FB7F894EE89FF896083E889F989D2
:1002A00080818370806480839FBF81E090E0DF91D4
:1002B000CF911F910F91FF90EF900895F62E0B8D27
:1002C00010E00F5F1F4F0F731127E02E8C8D8E11E2
:1002D0000CC00FB607FCFACFE889F989808185FF49
:1002E000F5CFCE010E941501F1CFEB8DEC0FFD2F64
:1002F000F11DE35AFF4FF0829FB7F8940B8FEA8904
:10030000FB8980818062CFCFCF93DF93EC01888D12
:100310008823B9F0AA89BB89E889F9898C9185FD80
:1003200003C0808186FD0DC00FB607FCF7CF8C910E
:1003300085FFF2CF808185FFEDCFCE010E941501B0
:10034000E9CFDF91CF910895833081F028F4813097
:1003500099F08230A9F008958730A9F08830C9F06B
:100360008430B1F4809180008F7D03C08091800043
:100370008F7780938000089584B58F7784BD08952A
:1003800084B58F7DFBCF8091B0008F778093B000D4
:1003900008958091B0008F7DF9CF1F93CF93DF93A5
:1003A000282F30E0F901E255FF4F8491F901E6561C
:1003B000FF4FD491F901EA57FF4FC491CC23A9F024
:1003C000162F81110E94A401EC2FF0E0EE0FFF1F09
:1003D000EE58FF4FA591B4918FB7F894EC9111119D
:1003E00008C0D095DE23DC938FBFDF91CF911F91A2
:1003F0000895DE2BF8CFCF93DF9390E0FC01E65613
:10040000FF4F24918A579F4FFC0184918823D1F09C
:1004100090E0880F991FFC01E859FF4FA591B49116
:10042000FC01EE58FF4FC591D49161110EC09FB7EA
:10043000F8948C91E22FE0958E238C932881E2230F
:10044000E8839FBFDF91CF9108958FB7F894EC9127
:10045000E22BEC938FBFF6CF3FB7F8948091D50392
:100460009091D603A091D703B091D80326B5A89B4D
:1004700005C02F3F19F00196A11DB11D3FBFBA2F36
:10048000A92F982F8827BC01CD01620F711D811DF6
:10049000911D42E0660F771F881F991F4A95D1F77B
:1004A00008958F929F92AF92BF92CF92DF92EF9278
:1004B000FF924B015C010E942C026B017C010E94A7
:1004C0002C026C197D098E099F09683E73408105D5
:1004D0009105A8F321E0821A9108A108B10888EEDD
:1004E000C80E83E0D81EE11CF11C81149104A10404
:1004F000B10429F7FF90EF90DF90CF90BF90AF90BD
:100500009F908F90089560E08CE00E94CD0161E0A3
:100510008BE00C94CD0161E08CE00E94CD0160E0A5
:100520008BE00C94CD01FC0101900020E9F731979C
:10053000AF01481B590BBC018BED93E00C948E006E
:10054000CF93DF930E949302EC0186E291E00E9438
:1005500093028C0F9D1FDF91CF910895CF93DF936E
:100560000E94BB00EC0186E291E00E9493028C0F96
:100570009D1FDF91CF910895FC0124813581409129
:10058000C0055091C10524173507E1F480819181A0
:100590006091BC057091BD050097D1F061157105A2
:1005A000A1F4232BC1F0FC01808190E008C0232B33
:1005B00091F0FB01808190E091958195910921E076
:1005C000892B09F020E0822F08950E94900CF7CF2C
:1005D0006115710561F721E0F6CF0F931F93CF935B
:1005E000DF938C01EB01FC01808191810097E1F0A8
:1005F0006881798161157105A9F0428153812C814F
:100600003D814217530770F00E94990C8C819D81A7
:10061000F801958384831D821C82DF91CF911F9105
:100620000F9108950E94410B88819981F80191836F
:1006300080838A819B81938382838C819D81958332
:100640008483198218821B821A82E5CFCF93DF93AD
:10065000EC0188819981009711F00E94410B198269
:1006600018821D821C821B821A82DF91CF9108950D
:10067000FC0180819181009711F00C94410B089549
:100680000F931F93CF93DF93EC018881998100979B
:1006900059F02A813B812617370730F081E0DF913E
:1006A000CF911F910F9108958B016F5F7F4F0E9433
:1006B000CA0B009759F0998388831B830A832C8186
:1006C0003D81232B59F7FC011082E8CF80E0E7CF72
:1006D000EF92FF920F931F93CF93DF93EC01FB01F7
:1006E000E080F180E114F10411F10481158101151C
:1006F0001105A9F08C819D81080F191FB801CE0149
:100700000E944003882399F0288139818C819D8142
:10071000B701820F931F0E94990C1D830C83CE0199
:10072000DF91CF911F910F91FF90EF900895CE012F
:100730000E942603F4CFEF92FF920F931F93CF9363
:10074000DF93EC017B018A01BA010E944003811111
:100750000BC0CE010E942603CE01DF91CF911F91E5
:100760000F91FF90EF9008951D830C83B70188814E
:1007700099810E94990CF0CFFB0101900020E9F7CC
:100780003197AF01461B570B0C949B03CF93DF931C
:10079000EC01FB018617970749F0608171816115B3
:1007A000710541F0448155810E949B03CE01DF9188
:1007B000CF9108950E942603F9CFFC011182108287
:1007C0001382128215821482FB0101900020E9F746
:1007D0003197AF01461B570B0C949B030F931F934C
:1007E000CF93DF93EC018B0168E271E00E94DD039F
:1007F00081E090E09987888762EF72E0033011050D
:100800002CF00330110571F06AE472E0CE010E9411
:10081000BC030E5F1F4F1F830E83DF91CF911F918B
:100820000F91089562E572E0CE010E94BC0385E05D
:1008300090E09F838E8319861886EFCFCF92DF9248
:10084000EF92FF920F931F93CF93DF9300D000D0CE
:1008500000D0CDB7DEB78C0168E271E08CEB95E09B
:100860000E94BC0348E7C42E44E0D42E58E0E52E95
:1008700056E0F52EB701C6010E94C603C7010E94CB
:10088000BB0068EE73E080E090E00E945102C60178
:100890000E94AE0226E0C20ED11C3AE0E30EF11C2B
:1008A0008EE4E81686E0F80629F789E291E00E94D6
:1008B00093021A8219821C821B821E821D8268E7A3
:1008C00074E0CE0101960E94C6036EE774E0CE018B
:1008D00001960E94680364E874E00E946803BC010A
:1008E0008CEB95E00E94C603CE0101960E9438036E
:1008F0008CEB95E00E94AE028091C0059091C105FD
:10090000892B51F062E371E08091BC059091BD05A7
:100910000E94900C892B39F132EAE32E34E0F32E59
:1009200096E9E91697E0F906B9F528E6E22E25E002
:10093000F22E30E6E31637E0F306D1F590E2E92E29
:1009400095E0F92E20EDE21626E0F20609F440C00B
:10095000C7010E94BC0236E0E30EF11C882391F32C
:1009600064E871E006C08AE391E00E9493026FE3BD
:1009700071E0C8010E94DD03C80126960FB6F89405
:10098000DEBF0FBECDBFDF91CF911F910F91FF90C2
:10099000EF90DF90CF900895C7010E94BC0226E03F
:1009A000E20EF11C882309F4BBCF67E471E0E1CFCC
:1009B000C7010E94BC0296E0E90EF11C882309F4ED
:1009C000B8CF8EE691E00E9493026EE671E0D1CF3F
:1009D0006FEF72E0CE0101960E94DD038091C005A9
:1009E0009091C105892BE1F0E090BC05F090BD0528
:1009F00069817A81C7010E94A00C009789F09C014F
:100A00002E193F097901CE0101960E94380365EA4B
:100A100071E0EF20E09409F0ACCF6BEB71E0A9CF6F
:100A2000EE24EA94FE2CEFCF1F920F920FB60F9296
:100A300011242F933F934F935F936F937F938F93E3
:100A40009F93AF93BF93EF93FF938BED93E00E943F
:100A50001501FF91EF91BF91AF919F918F917F9180
:100A60006F915F914F913F912F910F900FBE0F901B
:100A70001F9018951F920F920FB60F9211242F936B
:100A80008F939F93EF93FF93E091EB03F091EC032F
:100A90008081E091F103F091F20382FD1BC090810F
:100AA0008091F4038F5F8F732091F503821741F0DB
:100AB000E091F403F0E0E552FC4F958F8093F4034E
:100AC000FF91EF919F918F912F910F900FBE0F90FB
:100AD0001F9018958081F4CF1F920F920FB60F923E
:100AE00011242F933F938F939F93AF93BF93809144
:100AF000D1039091D203A091D303B091D40330914C
:100B0000D00323E0230F2D3758F50196A11DB11D09
:100B10002093D0038093D1039093D203A093D30367
:100B2000B093D4038091D5039091D603A091D703BD
:100B3000B091D8030196A11DB11D8093D503909368
:100B4000D603A093D703B093D803BF91AF919F91E1
:100B50008F913F912F910F900FBE0F901F9018957E
:100B600026E8230F0296A11DB11DD2CF61E08CE0D3
:100B70000E94CD0161E08BE00E94CD0160ED77E045
:100B800080E090E00E94510290E080E00E94BA0C68
:100B90000F931F93CF93DF931092DE031092DD0328
:100BA00088EE93E0A0E0B0E08093DF039093E00351
:100BB000A093E103B093E20388E191E09093DC031A
:100BC0008093DB0385EC90E09093E8038093E70348
:100BD00084EC90E09093EA038093E90380EC90E04A
:100BE0009093EC038093EB0381EC90E09093EE0301
:100BF0008093ED0382EC90E09093F0038093EF03F9
:100C000086EC90E09093F2038093F1031092F4034A
:100C10001092F5031092F6031092F703C8E0D6E0A5
:100C20000EE416E068E271E0CE010E94DD032A9630
:100C30000C171D07B9F7C2ECD5E068E271E0CE01F0
:100C40000E94DD032A9686E0C830D807B1F768E233
:100C500071E08CEB95E00E94DD0364ED71E088E6C5
:100C600095E00E94DD036CED71E08EE695E00E9458
:100C7000DD0364EE71E084E795E00E94DD036CEE35
:100C800071E08AE795E00E94DD0364EF71E080E89F
:100C900095E00E94DD036CEF71E086E895E00E942C
:100CA000DD0364E072E08CE895E00E94DD036CE017
:100CB00072E082E995E00E94DD0364E172E088E978
:100CC00095E00E94DD036CE172E08EE995E00E9400
:100CD000DD0364E272E084EA95E00E94DD036CE2E9
:100CE00072E08AEA95E00E94DD0364E372E080EB43
:100CF00095E00E94DD036CE372E086EB95E00E94D4
:100D0000DD0364E472E080E295E00E94DD036CE4C0
:100D100072E086E295E00E94DD0364E572E08CE219
:100D200095E00E94DD036CE572E082E395E00E94AD
:100D3000DD0364E672E088E395E00E94DD036CE683
:100D400072E08EE395E00E94DD0364E772E084E4E4
:100D500095E00E94DD0364E672E08AE495E00E947B
:100D6000DD0364E572E080E595E00E94DD036CE759
:100D700072E086E595E00E94DD036CE772E08CE5A9
:100D800095E00E94DD0364E872E082E695E00E944F
:100D9000DD036CE872E082EA94E00E94DD0364E91E
:100DA00072E088EA94E00E94DD036CE972E08EEA6A
:100DB00094E00E94DD0364EA72E084EB94E00E9418
:100DC000DD036CEA72E08AEB94E00E94DD0364EBE1
:100DD00072E080EC94E00E94DD036CEB72E086EC44
:100DE00094E00E94DD0364EC72E08CEC94E00E94DD
:100DF000DD036CEC72E082ED94E00E94DD0364EDB3
:100E000072E088ED94E00E94DD0364EB72E08EED09
:100E100094E00E94DD036CED72E084EE94E00E94A9
:100E2000DD0364EE72E08AEE94E00E94DD036CEE76
:100E300072E080EF94E00E94DD0364EF72E086EFE1
:100E400094E00E94DD036CEF72E08CEF94E00E946E
:100E5000DD0364E073E082E095E00E94DD036CE076
:100E600073E088E095E00E94DD0364E173E08EE0CA
:100E700095E00E94DD036CE173E084E195E00E945F
:100E8000DD0364E273E08AE195E00E94DD03C8E7D8
:100E9000D4E068E271E0CE010E94DD03269684E092
:100EA000C23AD807B1F7DF91CF911F910F91089502
:100EB000CF93DF93CDB7DEB7A7970FB6F894DEBF19
:100EC0000FBECDBF789484B5826084BD84B5816047
:100ED00084BD85B5826085BD85B5816085BD809105
:100EE0006E00816080936E0010928100809181007D
:100EF0008260809381008091810081608093810075
:100F0000809180008160809380008091B100846036
:100F10008093B1008091B00081608093B000809197
:100F20007A00846080937A0080917A008260809356
:100F30007A0080917A00816080937A0080917A00B3
:100F4000806880937A001092C100E091EB03F091E9
:100F5000EC0382E08083E091E703F091E8031082E4
:100F6000E091E903F091EA0380E180831092F303BA
:100F7000E091EF03F091F00386E08083E091ED03D0
:100F8000F091EE03808180618083E091ED03F09128
:100F9000EE03808188608083E091ED03F091EE03A1
:100FA000808180688083E091ED03F091EE03808181
:100FB0008F7D808306E011E0B4E1EB2EB1E0FB2EE3
:100FC000F80180810E5F1F4F60E00E94FB01E01678
:100FD000F106B1F761E08BE00E94FB0161E08CE07B
:100FE0000E94FB01F2ECEF2EF5E0FF2EA8E0CA2EE6
:100FF000A6E0DA2E10E000E0B801CE0101960E94D2
:10100000EE03BE016F5F7F4FC6010E94ED028F812C
:101010009885F6019783868389859A85918780874D
:10102000CE0101960E943803B801CE0101960E94BC
:10103000EE03BE016F5F7F4FC7010E94ED028F81FB
:101040009885F7019783868389859A85918780871C
:10105000CE0101960E9438030F5F1F4FFAE0CF0EBA
:10106000D11C8AE0E80EF11C0730110529F60E9418
:101070008B020E948302EAE04E2E512C612C712CCF
:101080007EE4272E76E0372E68E873E180E090E07A
:101090000E94510268E0E62E66E0F62EF7012681F6
:1010A00037813327F901E255FF4F8491F901E65664
:1010B000FF4F0491F901EA57FF4F1491112309F4EE
:1010C000C7C081110E94A401E12FF0E0EE0FFF1FC5
:1010D000E458FF4FA591B491EC910E2309F4B8C0E8
:1010E00081E090E0F70191878087F7018084918407
:1010F000092C000CAA08BB08B7FEAEC06DE28BED50
:1011000093E00E94370122273327A90128193909C2
:101110004A095B0919A28E010F5D1F4FCA01B9016F
:10112000A30192010E947D0A605DF80162938F0124
:10113000211531054105510589F70115110519F0F2
:10114000C8010E949302FAE0EF0EF11C2E143F0436
:1011500009F0A4CF88E291E00E94A00208E016E026
:10116000C8010E94BB00065F1F4FE016F106C1F7E1
:1011700088E291E00E94A002CE0101960E941E0426
:10118000CE0101960E94AE02CE0101960E94380364
:1011900032ECC32E35E0D32E48E0E42E46E0F42EA8
:1011A00081E0F70140855185F601208531854217A0
:1011B000530719F00E948B0280E0FAE0EF0EF11C59
:1011C0009AE0C90ED11CE016F10659F7882309F4FC
:1011D00059C00E9483028CE293E00E94A002CE01DB
:1011E00001960E941E04CE0101960E94AE02CE011D
:1011F00001960E94380388E0E82E86E0F82E02EC83
:1012000015E0B701C8010E94C603F70186819781E6
:10121000F80197838683F70180859185F80191878E
:101220008087065F1F4FFAE0EF0EF11C88E096E022
:101230008017910731F7E0E0F0E0EF2B09F424CFBD
:101240000E940101882309F41BCF0E94000018CFDF
:10125000F7011186108649CFA501940119A28E01CC
:101260000F5D1F4FCA01B901A30192010E947D0ABF
:10127000605DF80162938F0121153105410551052B
:1012800089F75BCFA2ECB5E0E8E0F6E090E080E023
:101290004085518518962D913C9119974217530717
:1012A00009F001963A961A96E017F10789F790939C
:1012B000DA038093D90303972CF088E393E00E942C
:1012C000930232C092ECA92E95E0B92E28E0822E2E
:1012D00026E0922ED12CC12C0FEF1FEFF12CE12C28
:1012E000F40120853185F50180859185281739071E
:1012F00039F00F3F100709F487010E948B02670144
:101300008FEFE81AF80A9AE0890E911CEAE0AE0E17
:10131000B11CF7E0EF16F10419F70C151D0531F4B7
:1013200085E593E00E94A0020E94B605C601801BDD
:10133000910B97FF03C091958195910903971CF03C
:101340008AE693E0BCCF8AE0809F5001819FB00C79
:10135000112485010E531A4F1BA21AA21DA21CA212
:101360001FA21EA2B801CE0182960E94C6039AE077
:101370009C9D40019D9D900C1124F401EE53FA4F69
:101380007F011A8219821C821B821E821D82BF016C
:10139000CE0101960E94C6038EA19FA1892B59F010
:1013A0006AE472E08AA19BA10E94900C892B19F437
:1013B0008FE793E084CF8D819E81892B59F062EF76
:1013C00072E089819A810E94900C892B19F480EA3D
:1013D00093E075CF81EC93E00E94A002B701C501B4
:1013E000885F994F0E94C603B801C401885F994F76
:1013F0000E94C603CE0101960E943803CE01829658
:10140000F8CECF93DF93C2EAD4E02697CE010E94B4
:10141000380384E0C837D807C1F7C0E2D5E0269783
:10142000CE010E94380384E0C23AD807C1F7C8E66B
:10143000D5E02697CE010E94380385E0C032D80758
:10144000C1F7CCEBD5E02697CE010E94380385E0AA
:10145000C836D807C1F78CEB95E00E943803C8E086
:10146000D6E02A97CE010E94380385E0C23CD80717
:10147000C1F7CEE4D6E02A97CE010E94380386E079
:10148000C830D807C1F7DF91CF9108952F923F92CE
:101490004F925F926F927F928F929F92AF92BF9284
:1014A000CF92DF92EF92FF920F931F93CF93DF9330
:1014B000CDB7DEB7CA1BDB0B0FB6F894DEBF0FBE8D
:1014C000CDBF09942A88398848885F846E847D84DA
:1014D0008C849B84AA84B984C884DF80EE80FD80DC
:1014E0000C811B81AA81B981CE0FD11D0FB6F89452
:1014F000DEBF0FBECDBFED010895A1E21A2EAA1BDB
:10150000BB1BFD010DC0AA1FBB1FEE1FFF1FA217B3
:10151000B307E407F50720F0A21BB30BE40BF50BB0
:10152000661F771F881F991F1A9469F76095709539
:10153000809590959B01AC01BD01CF010895EE0F00
:10154000FF1F0590F491E02D09940F931F93CF9303
:10155000DF938230910510F482E090E0E091500634
:10156000F091510630E020E0B0E0A0E0309799F42F
:101570002115310509F44AC0281B390B24303105E7
:10158000D8F58A819B816115710589F1FB019383EF
:101590008283FE0111C0408151810281138148176D
:1015A0005907E0F04817590799F4109761F012961F
:1015B0000C93129713961C933296CF01DF91CF9123
:1015C0001F910F9108950093500610935106F4CF88
:1015D0002115310551F04217530738F0A901DB01FD
:1015E0009A01BD01DF01F801C1CFEF01F9CF90935E
:1015F000510680935006CDCFFE01E20FF31F819379
:1016000091932250310939832883D7CF20914E06F8
:1016100030914F06232B41F42091020130910301B8
:1016200030934F0620934E06209100013091010126
:101630002115310541F42DB73EB740910401509179
:101640000501241B350BE0914E06F0914F06E21781
:10165000F307A0F42E1B3F0B2817390778F0AC01D5
:101660004E5F5F4F2417350748F04E0F5F1F5093B2
:101670004F0640934E06819391939FCFF0E0E0E0B8
:101680009CCFCF93DF930097E9F0FC013297138250
:101690001282A0915006B0915106ED0130E020E099
:1016A0001097A1F420813181820F931F20914E0663
:1016B00030914F062817390709F061C0F0934F06A3
:1016C000E0934E06DF91CF910895EA01CE17DF0730
:1016D000E8F54A815B819E0141155105B1F7E901A9
:1016E000FB83EA8349915991C40FD51FEC17FD077D
:1016F00061F4808191810296840F951FE90199839D
:101700008883828193819B838A83F0E0E0E0129654
:101710008D919C9113970097B9F52D913C9111975C
:10172000CD010296820F931F20914E0630914F06F5
:101730002817390739F6309751F510925106109253
:101740005006B0934F06A0934E06BCCFD383C283FE
:1017500040815181840F951FC817D90761F44E5FEE
:101760005F4F88819981480F591F518340838A8137
:101770009B81938382832115310509F0B0CFF093CB
:101780005106E09350069ECFFD01DC01C0CF1382CD
:101790001282D7CFB0E0A0E0E0EDFBE00C94480A65
:1017A0008C01009751F4CB010E94A50A8C01C8015D
:1017B000CDB7DEB7E0E10C94640AFC01E60FF71F39
:1017C0009C0122503109E217F30708F49DC0D901AA
:1017D000CD91DC911197C617D70798F0C530D10588
:1017E00030F3CE0104978617970708F3C61BD70B73
:1017F0002297C193D1936D937C93CF010E94410BAB
:10180000D6CF5B01AC1ABD0A4C018C0E9D1EA09177
:101810005006B0915106512C412CF12CE12C10971F
:1018200031F580914E0690914F068815990509F083
:101830005CC04616570608F058C080910001909190
:101840000101009741F48DB79EB74091040150917A
:101850000501841B950BE817F90708F055C0F093B4
:101860004F06E0934E06F90171836083A0CF8D91FE
:101870009C91119712966C90129713967C901397E7
:10188000A815B90559F56C0142E0C40ED11CCA1463
:10189000DB0420F1AC014A195B09DA0112961597B5
:1018A00080F06282738251834083D9016D937C936F
:1018B000E114F10471F0D7011396FC93EE931297A3
:1018C00076CF22968C0F9D1FF90191838083F301BF
:1018D000EFCFF0935106E093500669CF48165906B2
:1018E00008F42C017D01D3019ACFCB010E94A50AF7
:1018F0007C01009749F0AE01B8010E94870CC80135
:101900000E94410B870153CF10E000E050CFFB0154
:10191000DC0102C001900D9241505040D8F708956B
:10192000FB01DC018D91019080190110D9F3990B15
:101930000895FB01DC0101900D920020E1F708956C
:10194000FB0151915523A9F0BF01DC014D914517D1
:101950004111E1F759F4CD010190002049F04D917A
:1019600040154111C9F3FB014111EFCF81E090E037
:101970000197089510E0C2E6D0E004C0FE010E9485
:101980009F0A2196C336D107C9F7F894FFCF00000C
:101990005206800002000300040005000600070054
:1019A00008000000000037018E00C4008401F5002B
:1019B000D300E7000D0A00436164656E613A2000C0
:1019C0004C4C4C585252520047616E6F0047616E4A
:1019D0006F203A290053696E206F7063696F6E65DE
:1019E000732064652067616E61722C2061756E20C2
:1019F0007075656465206D6F76657200436F6E204B
:101A00006F7063696F6E65732064652067616E61D6
:101A1000720053696E206D6F76696D69656E746FC3
:101A20007320706F7369626C65732C2070657264CB
:101A3000696F0053696E206F7063696F6E65732004
:101A400064652067616E6172004D6F76696D6965CE
:101A50006E746F206E6F207265636F6E6F63696462
:101A60006F00525258524C4C4C0052524C52584CEF
:101A70004C0052524C524C584C0052524C584C5202
:101A80004C0052584C524C524C0058524C524C52F2
:101A90004C004C5258524C524C004C524C525852E2
:101AA0004C004C524C524C5258004C524C524C58D8
:101AB00052004C524C584C5252004C584C524C52C2
:101AC00052004C4C58524C5252004C4C4C525852B2
:101AD0005200585252524C4C4C0052524C524C4CA8
:101AE000580052524C4C4C5852004C524C4C58528C
:101AF00052004C5852524C524C00524C4C5852527C
:101B00004C00524C4C4C585252004C585252524C71
:101B10004C004C4C585252524C00525852524C4C61
:101B20004C0052524C4C58524C0052524C4C4C525D
:101B30005800524C58524C524C00524C4C52585235
:101B40004C00584C52524C524C00524C4C524C523D
:101B50005800524C4C584C525200524C4C524C581B
:101B6000520052524C58524C4C0052524C4C52580B
:101B70004C0052524C4C524C580052524C4C584C07
:101B8000520052584C52524C4C0058524C52524CEB
:101B90004C004C525852524C4C00524C5852524CE1
:101BA0004C00584C5252524C4C004C524C585252D1
:101BB0004C004C584C5252524C0050756564652094
:101BC0006D6F766572005365206D6F766965726F13
:101BD0006E206DC3A173206465203220666963683E
:101BE000617300536F6C6F206D6F76696F20756E37
:101BF00061206669636861004D6F76696D69656E25
:101C0000746F206D7579206C6172676F004D4F564F
:101C1000494F20554E4120495A515549455244415A
:101C20002041204C412044455245434841004D4FFE
:101C300056494F20554E4120444552454348412086
:101C400041204C4120495A51554945524441005385
:0E1C50006520686172612063616D62696F00DA
:107E0000112484B714BE81FFF0D085E080938100F7
:107E100082E08093C00088E18093C10086E0809377
:107E2000C20080E18093C4008EE0C9D0259A86E02C
:107E300020E33CEF91E0309385002093840096BBD3
:107E4000B09BFECF1D9AA8958150A9F7CC24DD24C4
:107E500088248394B5E0AB2EA1E19A2EF3E0BF2EE7
:107E6000A2D0813461F49FD0082FAFD0023811F036
:107E7000013811F484E001C083E08DD089C08234E0
:107E800011F484E103C0853419F485E0A6D080C0E4
:107E9000853579F488D0E82EFF2485D0082F10E0AE
:107EA000102F00270E291F29000F111F8ED06801E7
:107EB0006FC0863521F484E090D080E0DECF843638
:107EC00009F040C070D06FD0082F6DD080E0C81688
:107ED00080E7D80618F4F601B7BEE895C0E0D1E017
:107EE00062D089930C17E1F7F0E0CF16F0E7DF06D8
:107EF00018F0F601B7BEE89568D007B600FCFDCFD4
:107F0000A601A0E0B1E02C9130E011968C91119780
:107F100090E0982F8827822B932B1296FA010C0160
:107F200087BEE89511244E5F5F4FF1E0A038BF0790
:107F300051F7F601A7BEE89507B600FCFDCF97BE46
:107F4000E89526C08437B1F42ED02DD0F82E2BD052
:107F50003CD0F601EF2C8F010F5F1F4F84911BD097
:107F6000EA94F801C1F70894C11CD11CFA94CF0C13
:107F7000D11C0EC0853739F428D08EE10CD085E9AC
:107F80000AD08FE07ACF813511F488E018D01DD067
:107F900080E101D065CF982F8091C00085FFFCCF94
:107FA0009093C60008958091C00087FFFCCF809118
:107FB000C00084FD01C0A8958091C6000895E0E648
:107FC000F0E098E1908380830895EDDF803219F02E
:107FD00088E0F5DFFFCF84E1DECF1F93182FE3DFCA
:107FE0001150E9F7F2DF1F91089580E0E8DFEE27F6
:047FF000FF270994CA
:027FFE00040479
:00000001FF
